:1008F40074616E6B20697320656D7074790066692C
:100904006C6C207468652074616E6B0054616E6B4E
:10091400206973206C6F770046696C6C207468657D
:100924002074616E6B0074616E6B206973206D6955
:10093400640074616E6B2069732066756C6C004E84
:1009440069747A2026207269747A0074616E6B204F
:10095400656D7074790066696C6C2074616E6B20CF
:010964000092
:10080000C2B0E4F580F5A0D290D291D292D2937F7B
:10081000381209ED7F0C1209ED7F061209ED7F01F8
:100820001209ED3093030208CE30921C309119303A
:100830009016D2B07F011209ED7F801209ED7BFF87
:100840007A0879F47D0D80422092263091233090F1
:10085000201209E97F801209ED7BFF7A0979107D6A
:100860000B1209657FC01209ED7BFF7A09791C80A4
:10087000272092282091253090221209E97F8012AA
:1008800009ED7BFF7A09792A7D0B1209657FC01279
:1008900009ED7BFF7A0979027D0D802C2090842060
:1008A00091813092030208231209E97F801209ED39
:1008B0007BFF7A0979367D0C1209657FC01209ED3C
:1008C0007BFF7A0979437D0B12096502082312091F
:1008D000E97F801209ED7BFF7A09794F7D0C1209BF
:1008E000657FC01209ED7BFF7A09795A7D0B1209E9
:0408F0006502082372
:0409E900C2B07F0118
:1009ED008FA0C280C281D2827F057E001209C9C24A
:0209FD00822254
:080965008B088A09890A8D0B39
:10096D00E4F50CE50CC3950B5024AB08AA09A90AB4
:10097D00850C8275830012099CF5A0D280C281D2AC
:0E098D00827F0A7E001209C9C282050C80D545
:01099B002239
:1009C900E4FDFCC3ED9FEC9E5015E4FBFA0BBB0064
:0F09D900010ABA04F8BBFBF50DBD00010C80E468
:0109E80022EC
:030000000209FFF3
:0C09FF00787FE4F6D8FD75810C0208003A
:10099C00BB010CE58229F582E5833AF583E0225010
:1009AC0006E92582F8E622BBFE06E92582F8E2225A
:0D09BC00E58229F582E5833AF583E4932274
:00000001FF
