:10090700495620697320656D707479005265666970
:100917006C6C207265710049562069732032352549
:100927000046696C6C20746865204956004956205A
:1009370069732035302500495620697320313030DE
:1009470025004E69747A2026207269747A007461D2
:100957006E6B20656D7074790066696C6C207461CC
:040967006E6B200093
:10080000C2B0E4F580F5A0D290D291D292D2937F7B
:10081000381209F37F0C1209F37F061209F37F01E6
:100820001209F33093030208E130922B3091283003
:100830009025D2B07F011209F37F801209F37BFF6C
:100840007A0979077D0C12096B7FC01209F37BFFCF
:100850007A0979130208D92092263091233090200A
:100860001209EF7F801209F37BFF7A09791E7D0A56
:1008700012096B7FC01209F37BFF7A09792880592E
:100880002092262091233090201209EF7F801209B8
:10089000F37BFF7A0979347D0A12096B7FC0120954
:1008A000F37BFF7A097928803030900302082330E7
:1008B00091030208233092030208231209EF7F807C
:1008C0001209F37BFF7A09793E7D0B12096B7FC019
:1008D0001209F37BFF7A0979497D0C12096B020832
:1008E000231209EF7F801209F37BFF7A0979557D86
:1008F0000C12096B7FC01209F37BFF7A0979607DC6
:070900000B12096B02082332
:0409EF00C2B07F0112
:1009F3008FA0C280C281D2827F057E001209CFC23E
:020A030082224D
:08096B008B088A09890A8D0B33
:10097300E4F50CE50CC3950B5024AB08AA09A90AAE
:10098300850C827583001209A2F5A0D280C281D2A0
:0E099300827F0A7E001209CFC282050C80D539
:0109A1002233
:1009CF00E4FDFCC3ED9FEC9E5015E4FBFA0BBB005E
:0F09DF00010ABA04F8BBFBF50DBD00010C80E462
:0109EE0022E6
:03000000020A05EC
:0C0A0500787FE4F6D8FD75810C02080033
:1009A200BB010CE58229F582E5833AF583E022500A
:1009B20006E92582F8E622BBFE06E92582F8E22254
:0D09C200E58229F582E5833AF583E493226E
:00000001FF
